{
    "_format": "hh-sol-artifact-1",
    "contractName": "DeBallNFT",
    "sourceName": "contracts/DeBallNFT.sol",
    "abi": [
        {
            "inputs": [
                {
                    "internalType": "string",
                    "name": "_initBaseURI",
                    "type": "string"
                }
            ],
            "stateMutability": "nonpayable",
            "type": "constructor"
        },
        {
            "anonymous": false,
            "inputs": [
                {
                    "indexed": true,
                    "internalType": "address",
                    "name": "owner",
                    "type": "address"
                },
                {
                    "indexed": true,
                    "internalType": "address",
                    "name": "approved",
                    "type": "address"
                },
                {
                    "indexed": true,
                    "internalType": "uint256",
                    "name": "tokenId",
                    "type": "uint256"
                }
            ],
            "name": "Approval",
            "type": "event"
        },
        {
            "anonymous": false,
            "inputs": [
                {
                    "indexed": true,
                    "internalType": "address",
                    "name": "owner",
                    "type": "address"
                },
                {
                    "indexed": true,
                    "internalType": "address",
                    "name": "operator",
                    "type": "address"
                },
                {
                    "indexed": false,
                    "internalType": "bool",
                    "name": "approved",
                    "type": "bool"
                }
            ],
            "name": "ApprovalForAll",
            "type": "event"
        },
        {
            "anonymous": false,
            "inputs": [
                {
                    "indexed": true,
                    "internalType": "address",
                    "name": "previousOwner",
                    "type": "address"
                },
                {
                    "indexed": true,
                    "internalType": "address",
                    "name": "newOwner",
                    "type": "address"
                }
            ],
            "name": "OwnershipTransferred",
            "type": "event"
        },
        {
            "anonymous": false,
            "inputs": [
                {
                    "indexed": true,
                    "internalType": "address",
                    "name": "from",
                    "type": "address"
                },
                {
                    "indexed": true,
                    "internalType": "address",
                    "name": "to",
                    "type": "address"
                },
                {
                    "indexed": true,
                    "internalType": "uint256",
                    "name": "tokenId",
                    "type": "uint256"
                }
            ],
            "name": "Transfer",
            "type": "event"
        },
        {
            "inputs": [
                {
                    "internalType": "address",
                    "name": "to",
                    "type": "address"
                },
                {
                    "internalType": "uint256",
                    "name": "tokenId",
                    "type": "uint256"
                }
            ],
            "name": "approve",
            "outputs": [],
            "stateMutability": "nonpayable",
            "type": "function"
        },
        {
            "inputs": [
                {
                    "internalType": "address",
                    "name": "owner",
                    "type": "address"
                }
            ],
            "name": "balanceOf",
            "outputs": [
                {
                    "internalType": "uint256",
                    "name": "",
                    "type": "uint256"
                }
            ],
            "stateMutability": "view",
            "type": "function"
        },
        {
            "inputs": [],
            "name": "baseExtension",
            "outputs": [
                {
                    "internalType": "string",
                    "name": "",
                    "type": "string"
                }
            ],
            "stateMutability": "view",
            "type": "function"
        },
        {
            "inputs": [],
            "name": "baseURI",
            "outputs": [
                {
                    "internalType": "string",
                    "name": "",
                    "type": "string"
                }
            ],
            "stateMutability": "view",
            "type": "function"
        },
        {
            "inputs": [],
            "name": "cost",
            "outputs": [
                {
                    "internalType": "uint256",
                    "name": "",
                    "type": "uint256"
                }
            ],
            "stateMutability": "view",
            "type": "function"
        },
        {
            "inputs": [],
            "name": "getAllTokenIdAddressList",
            "outputs": [
                {
                    "internalType": "address[]",
                    "name": "_addressList",
                    "type": "address[]"
                }
            ],
            "stateMutability": "view",
            "type": "function"
        },
        {
            "inputs": [
                {
                    "internalType": "uint256",
                    "name": "tokenId",
                    "type": "uint256"
                }
            ],
            "name": "getApproved",
            "outputs": [
                {
                    "internalType": "address",
                    "name": "",
                    "type": "address"
                }
            ],
            "stateMutability": "view",
            "type": "function"
        },
        {
            "inputs": [
                {
                    "internalType": "uint256",
                    "name": "_tokenId",
                    "type": "uint256"
                }
            ],
            "name": "getTokenIdAddressList",
            "outputs": [
                {
                    "internalType": "address",
                    "name": "_tokenIdOwnerAddress",
                    "type": "address"
                }
            ],
            "stateMutability": "view",
            "type": "function"
        },
        {
            "inputs": [
                {
                    "internalType": "address",
                    "name": "owner",
                    "type": "address"
                },
                {
                    "internalType": "address",
                    "name": "operator",
                    "type": "address"
                }
            ],
            "name": "isApprovedForAll",
            "outputs": [
                {
                    "internalType": "bool",
                    "name": "",
                    "type": "bool"
                }
            ],
            "stateMutability": "view",
            "type": "function"
        },
        {
            "inputs": [],
            "name": "maxMintAmount",
            "outputs": [
                {
                    "internalType": "uint256",
                    "name": "",
                    "type": "uint256"
                }
            ],
            "stateMutability": "view",
            "type": "function"
        },
        {
            "inputs": [],
            "name": "maxSupply",
            "outputs": [
                {
                    "internalType": "uint256",
                    "name": "",
                    "type": "uint256"
                }
            ],
            "stateMutability": "view",
            "type": "function"
        },
        {
            "inputs": [
                {
                    "internalType": "address",
                    "name": "_to",
                    "type": "address"
                },
                {
                    "internalType": "uint256",
                    "name": "_mintAmount",
                    "type": "uint256"
                }
            ],
            "name": "mint",
            "outputs": [
                {
                    "internalType": "bool",
                    "name": "success",
                    "type": "bool"
                }
            ],
            "stateMutability": "nonpayable",
            "type": "function"
        },
        {
            "inputs": [],
            "name": "name",
            "outputs": [
                {
                    "internalType": "string",
                    "name": "",
                    "type": "string"
                }
            ],
            "stateMutability": "view",
            "type": "function"
        },
        {
            "inputs": [],
            "name": "owner",
            "outputs": [
                {
                    "internalType": "address",
                    "name": "",
                    "type": "address"
                }
            ],
            "stateMutability": "view",
            "type": "function"
        },
        {
            "inputs": [
                {
                    "internalType": "uint256",
                    "name": "tokenId",
                    "type": "uint256"
                }
            ],
            "name": "ownerOf",
            "outputs": [
                {
                    "internalType": "address",
                    "name": "",
                    "type": "address"
                }
            ],
            "stateMutability": "view",
            "type": "function"
        },
        {
            "inputs": [
                {
                    "internalType": "bool",
                    "name": "_state",
                    "type": "bool"
                }
            ],
            "name": "pause",
            "outputs": [],
            "stateMutability": "nonpayable",
            "type": "function"
        },
        {
            "inputs": [],
            "name": "paused",
            "outputs": [
                {
                    "internalType": "bool",
                    "name": "",
                    "type": "bool"
                }
            ],
            "stateMutability": "view",
            "type": "function"
        },
        {
            "inputs": [],
            "name": "renounceOwnership",
            "outputs": [],
            "stateMutability": "nonpayable",
            "type": "function"
        },
        {
            "inputs": [
                {
                    "internalType": "address",
                    "name": "from",
                    "type": "address"
                },
                {
                    "internalType": "address",
                    "name": "to",
                    "type": "address"
                },
                {
                    "internalType": "uint256",
                    "name": "tokenId",
                    "type": "uint256"
                }
            ],
            "name": "safeTransferFrom",
            "outputs": [],
            "stateMutability": "nonpayable",
            "type": "function"
        },
        {
            "inputs": [
                {
                    "internalType": "address",
                    "name": "from",
                    "type": "address"
                },
                {
                    "internalType": "address",
                    "name": "to",
                    "type": "address"
                },
                {
                    "internalType": "uint256",
                    "name": "tokenId",
                    "type": "uint256"
                },
                {
                    "internalType": "bytes",
                    "name": "data",
                    "type": "bytes"
                }
            ],
            "name": "safeTransferFrom",
            "outputs": [],
            "stateMutability": "nonpayable",
            "type": "function"
        },
        {
            "inputs": [
                {
                    "internalType": "address",
                    "name": "operator",
                    "type": "address"
                },
                {
                    "internalType": "bool",
                    "name": "approved",
                    "type": "bool"
                }
            ],
            "name": "setApprovalForAll",
            "outputs": [],
            "stateMutability": "nonpayable",
            "type": "function"
        },
        {
            "inputs": [
                {
                    "internalType": "string",
                    "name": "_newBaseExtension",
                    "type": "string"
                }
            ],
            "name": "setBaseExtension",
            "outputs": [],
            "stateMutability": "nonpayable",
            "type": "function"
        },
        {
            "inputs": [
                {
                    "internalType": "string",
                    "name": "_newBaseURI",
                    "type": "string"
                }
            ],
            "name": "setBaseURI",
            "outputs": [],
            "stateMutability": "nonpayable",
            "type": "function"
        },
        {
            "inputs": [
                {
                    "internalType": "uint256",
                    "name": "_newCost",
                    "type": "uint256"
                }
            ],
            "name": "setCost",
            "outputs": [],
            "stateMutability": "nonpayable",
            "type": "function"
        },
        {
            "inputs": [
                {
                    "internalType": "uint256",
                    "name": "_tokenId",
                    "type": "uint256"
                }
            ],
            "name": "setTokenIdAddressList",
            "outputs": [
                {
                    "internalType": "bool",
                    "name": "success",
                    "type": "bool"
                }
            ],
            "stateMutability": "nonpayable",
            "type": "function"
        },
        {
            "inputs": [
                {
                    "internalType": "uint256",
                    "name": "_newmaxMintAmount",
                    "type": "uint256"
                }
            ],
            "name": "setmaxMintAmount",
            "outputs": [],
            "stateMutability": "nonpayable",
            "type": "function"
        },
        {
            "inputs": [
                {
                    "internalType": "bytes4",
                    "name": "interfaceId",
                    "type": "bytes4"
                }
            ],
            "name": "supportsInterface",
            "outputs": [
                {
                    "internalType": "bool",
                    "name": "",
                    "type": "bool"
                }
            ],
            "stateMutability": "view",
            "type": "function"
        },
        {
            "inputs": [],
            "name": "symbol",
            "outputs": [
                {
                    "internalType": "string",
                    "name": "",
                    "type": "string"
                }
            ],
            "stateMutability": "view",
            "type": "function"
        },
        {
            "inputs": [
                {
                    "internalType": "uint256",
                    "name": "index",
                    "type": "uint256"
                }
            ],
            "name": "tokenByIndex",
            "outputs": [
                {
                    "internalType": "uint256",
                    "name": "",
                    "type": "uint256"
                }
            ],
            "stateMutability": "view",
            "type": "function"
        },
        {
            "inputs": [
                {
                    "internalType": "uint256",
                    "name": "",
                    "type": "uint256"
                }
            ],
            "name": "tokenIdAddressList",
            "outputs": [
                {
                    "internalType": "address",
                    "name": "",
                    "type": "address"
                }
            ],
            "stateMutability": "view",
            "type": "function"
        },
        {
            "inputs": [
                {
                    "internalType": "address",
                    "name": "owner",
                    "type": "address"
                },
                {
                    "internalType": "uint256",
                    "name": "index",
                    "type": "uint256"
                }
            ],
            "name": "tokenOfOwnerByIndex",
            "outputs": [
                {
                    "internalType": "uint256",
                    "name": "",
                    "type": "uint256"
                }
            ],
            "stateMutability": "view",
            "type": "function"
        },
        {
            "inputs": [
                {
                    "internalType": "uint256",
                    "name": "tokenId",
                    "type": "uint256"
                }
            ],
            "name": "tokenURI",
            "outputs": [
                {
                    "internalType": "string",
                    "name": "",
                    "type": "string"
                }
            ],
            "stateMutability": "view",
            "type": "function"
        },
        {
            "inputs": [],
            "name": "totalSupply",
            "outputs": [
                {
                    "internalType": "uint256",
                    "name": "",
                    "type": "uint256"
                }
            ],
            "stateMutability": "view",
            "type": "function"
        },
        {
            "inputs": [
                {
                    "internalType": "address",
                    "name": "from",
                    "type": "address"
                },
                {
                    "internalType": "address",
                    "name": "to",
                    "type": "address"
                },
                {
                    "internalType": "uint256",
                    "name": "tokenId",
                    "type": "uint256"
                }
            ],
            "name": "transferFrom",
            "outputs": [],
            "stateMutability": "nonpayable",
            "type": "function"
        },
        {
            "inputs": [
                {
                    "internalType": "address",
                    "name": "newOwner",
                    "type": "address"
                }
            ],
            "name": "transferOwnership",
            "outputs": [],
            "stateMutability": "nonpayable",
            "type": "function"
        }
    ],
    "bytecode": "0x60806040526040518060400160405280600581526020017f2e6a736f6e000000000000000000000000000000000000000000000000000000815250600c90805190602001906200005192919062000fd4565b5066b1a2bc2ec50000600d55612710600e556004600f556000601060006101000a81548160ff0219169083151502179055503480156200009057600080fd5b506040516200565b3803806200565b8339818101604052810190620000b6919062001221565b6040518060400160405280600981526020017f446542616c6c4e465400000000000000000000000000000000000000000000008152506040518060400160405280600281526020017f444200000000000000000000000000000000000000000000000000000000000081525081600090805190602001906200013a92919062000fd4565b5080600190805190602001906200015392919062000fd4565b505050620001766200016a620001a260201b60201c565b620001aa60201b60201c565b62000187816200027060201b60201c565b6200019a3360046200029c60201b60201c565b505062001965565b600033905090565b6000600a60009054906101000a900473ffffffffffffffffffffffffffffffffffffffff16905081600a60006101000a81548173ffffffffffffffffffffffffffffffffffffffff021916908373ffffffffffffffffffffffffffffffffffffffff1602179055508173ffffffffffffffffffffffffffffffffffffffff168173ffffffffffffffffffffffffffffffffffffffff167f8be0079c531659141344cd1fd0a4f28419497f9722a3daafe3b4186f6b6457e060405160405180910390a35050565b62000280620003c860201b60201c565b80600b90805190602001906200029892919062000fd4565b5050565b6000620002ae620003c860201b60201c565b6000620002c06200045960201b60201c565b9050601060009054906101000a900460ff1615620002dd57600080fd5b60008311620002eb57600080fd5b600f54831115620002fb57600080fd5b600e5483826200030c9190620012ab565b11156200031857600080fd5b6000600190505b838111620003bc57620003468582846200033a9190620012ab565b6200046660201b60201c565b620003648183620003589190620012ab565b6200048c60201b60201c565b620003a6576040517f08c379a00000000000000000000000000000000000000000000000000000000081526004016200039d9062001369565b60405180910390fd5b8080620003b3906200138b565b9150506200031f565b50600191505092915050565b620003d8620001a260201b60201c565b73ffffffffffffffffffffffffffffffffffffffff16620003fe6200050a60201b60201c565b73ffffffffffffffffffffffffffffffffffffffff161462000457576040517f08c379a00000000000000000000000000000000000000000000000000000000081526004016200044e9062001429565b60405180910390fd5b565b6000600880549050905090565b620004888282604051806020016040528060008152506200053460201b60201c565b5050565b60006011620004a183620005a260201b60201c565b9080600181540180825580915050600190039060005260206000200160009091909190916101000a81548173ffffffffffffffffffffffffffffffffffffffff021916908373ffffffffffffffffffffffffffffffffffffffff16021790555060019050919050565b6000600a60009054906101000a900473ffffffffffffffffffffffffffffffffffffffff16905090565b6200054683836200065760201b60201c565b6200055b60008484846200085160201b60201c565b6200059d576040517f08c379a00000000000000000000000000000000000000000000000000000000081526004016200059490620014c1565b60405180910390fd5b505050565b6000806002600084815260200190815260200160002060009054906101000a900473ffffffffffffffffffffffffffffffffffffffff169050600073ffffffffffffffffffffffffffffffffffffffff168173ffffffffffffffffffffffffffffffffffffffff1614156200064e576040517f08c379a0000000000000000000000000000000000000000000000000000000008152600401620006459062001533565b60405180910390fd5b80915050919050565b600073ffffffffffffffffffffffffffffffffffffffff168273ffffffffffffffffffffffffffffffffffffffff161415620006ca576040517f08c379a0000000000000000000000000000000000000000000000000000000008152600401620006c190620015a5565b60405180910390fd5b620006db8162000a0b60201b60201c565b156200071e576040517f08c379a0000000000000000000000000000000000000000000000000000000008152600401620007159062001617565b60405180910390fd5b620007326000838362000a7760201b60201c565b6001600360008473ffffffffffffffffffffffffffffffffffffffff1673ffffffffffffffffffffffffffffffffffffffff1681526020019081526020016000206000828254620007849190620012ab565b92505081905550816002600083815260200190815260200160002060006101000a81548173ffffffffffffffffffffffffffffffffffffffff021916908373ffffffffffffffffffffffffffffffffffffffff160217905550808273ffffffffffffffffffffffffffffffffffffffff16600073ffffffffffffffffffffffffffffffffffffffff167fddf252ad1be2c89b69c2b068fc378daa952ba7f163c4a11628f55a4df523b3ef60405160405180910390a46200084d6000838362000bbe60201b60201c565b5050565b60006200087f8473ffffffffffffffffffffffffffffffffffffffff1662000bc360201b6200144d1760201c565b15620009fe578373ffffffffffffffffffffffffffffffffffffffff1663150b7a02620008b1620001a260201b60201c565b8786866040518563ffffffff1660e01b8152600401620008d59493929190620016ec565b602060405180830381600087803b158015620008f057600080fd5b505af19250505080156200092457506040513d601f19601f820116820180604052508101906200092191906200179d565b60015b620009ad573d806000811462000957576040519150601f19603f3d011682016040523d82523d6000602084013e6200095c565b606091505b50600081511415620009a5576040517f08c379a00000000000000000000000000000000000000000000000000000000081526004016200099c90620014c1565b60405180910390fd5b805181602001fd5b63150b7a0260e01b7bffffffffffffffffffffffffffffffffffffffffffffffffffffffff1916817bffffffffffffffffffffffffffffffffffffffffffffffffffffffff19161491505062000a03565b600190505b949350505050565b60008073ffffffffffffffffffffffffffffffffffffffff166002600084815260200190815260200160002060009054906101000a900473ffffffffffffffffffffffffffffffffffffffff1673ffffffffffffffffffffffffffffffffffffffff1614159050919050565b62000a8f83838362000be660201b620014701760201c565b600073ffffffffffffffffffffffffffffffffffffffff168373ffffffffffffffffffffffffffffffffffffffff16141562000adc5762000ad68162000beb60201b60201c565b62000b24565b8173ffffffffffffffffffffffffffffffffffffffff168373ffffffffffffffffffffffffffffffffffffffff161462000b235762000b22838262000c3460201b60201c565b5b5b600073ffffffffffffffffffffffffffffffffffffffff168273ffffffffffffffffffffffffffffffffffffffff16141562000b715762000b6b8162000db160201b60201c565b62000bb9565b8273ffffffffffffffffffffffffffffffffffffffff168273ffffffffffffffffffffffffffffffffffffffff161462000bb85762000bb7828262000e8d60201b60201c565b5b5b505050565b505050565b6000808273ffffffffffffffffffffffffffffffffffffffff163b119050919050565b505050565b6008805490506009600083815260200190815260200160002081905550600881908060018154018082558091505060019003906000526020600020016000909190919091505550565b6000600162000c4e8462000f1960201b62000f381760201c565b62000c5a9190620017cf565b905060006007600084815260200190815260200160002054905081811462000d40576000600660008673ffffffffffffffffffffffffffffffffffffffff1673ffffffffffffffffffffffffffffffffffffffff168152602001908152602001600020600084815260200190815260200160002054905080600660008773ffffffffffffffffffffffffffffffffffffffff1673ffffffffffffffffffffffffffffffffffffffff168152602001908152602001600020600084815260200190815260200160002081905550816007600083815260200190815260200160002081905550505b6007600084815260200190815260200160002060009055600660008573ffffffffffffffffffffffffffffffffffffffff1673ffffffffffffffffffffffffffffffffffffffff16815260200190815260200160002060008381526020019081526020016000206000905550505050565b6000600160088054905062000dc79190620017cf565b905060006009600084815260200190815260200160002054905060006008838154811062000dfa5762000df96200180a565b5b90600052602060002001549050806008838154811062000e1f5762000e1e6200180a565b5b90600052602060002001819055508160096000838152602001908152602001600020819055506009600085815260200190815260200160002060009055600880548062000e715762000e7062001839565b5b6001900381819060005260206000200160009055905550505050565b600062000ea58362000f1960201b62000f381760201c565b905081600660008573ffffffffffffffffffffffffffffffffffffffff1673ffffffffffffffffffffffffffffffffffffffff168152602001908152602001600020600083815260200190815260200160002081905550806007600084815260200190815260200160002081905550505050565b60008073ffffffffffffffffffffffffffffffffffffffff168273ffffffffffffffffffffffffffffffffffffffff16141562000f8d576040517f08c379a000000000000000000000000000000000000000000000000000000000815260040162000f8490620018de565b60405180910390fd5b600360008373ffffffffffffffffffffffffffffffffffffffff1673ffffffffffffffffffffffffffffffffffffffff168152602001908152602001600020549050919050565b82805462000fe2906200192f565b90600052602060002090601f01602090048101928262001006576000855562001052565b82601f106200102157805160ff191683800117855562001052565b8280016001018555821562001052579182015b828111156200105157825182559160200191906001019062001034565b5b50905062001061919062001065565b5090565b5b808211156200108057600081600090555060010162001066565b5090565b6000604051905090565b600080fd5b600080fd5b600080fd5b600080fd5b6000601f19601f8301169050919050565b7f4e487b7100000000000000000000000000000000000000000000000000000000600052604160045260246000fd5b620010ed82620010a2565b810181811067ffffffffffffffff821117156200110f576200110e620010b3565b5b80604052505050565b60006200112462001084565b9050620011328282620010e2565b919050565b600067ffffffffffffffff821115620011555762001154620010b3565b5b6200116082620010a2565b9050602081019050919050565b60005b838110156200118d57808201518184015260208101905062001170565b838111156200119d576000848401525b50505050565b6000620011ba620011b48462001137565b62001118565b905082815260208101848484011115620011d957620011d86200109d565b5b620011e68482856200116d565b509392505050565b600082601f83011262001206576200120562001098565b5b815162001218848260208601620011a3565b91505092915050565b6000602082840312156200123a57620012396200108e565b5b600082015167ffffffffffffffff8111156200125b576200125a62001093565b5b6200126984828501620011ee565b91505092915050565b6000819050919050565b7f4e487b7100000000000000000000000000000000000000000000000000000000600052601160045260246000fd5b6000620012b88262001272565b9150620012c58362001272565b9250827fffffffffffffffffffffffffffffffffffffffffffffffffffffffffffffffff03821115620012fd57620012fc6200127c565b5b828201905092915050565b600082825260208201905092915050565b7f4552524f523a20617070656e646564206661756c740000000000000000000000600082015250565b60006200135160158362001308565b91506200135e8262001319565b602082019050919050565b60006020820190508181036000830152620013848162001342565b9050919050565b6000620013988262001272565b91507fffffffffffffffffffffffffffffffffffffffffffffffffffffffffffffffff821415620013ce57620013cd6200127c565b5b600182019050919050565b7f4f776e61626c653a2063616c6c6572206973206e6f7420746865206f776e6572600082015250565b60006200141160208362001308565b91506200141e82620013d9565b602082019050919050565b60006020820190508181036000830152620014448162001402565b9050919050565b7f4552433732313a207472616e7366657220746f206e6f6e20455243373231526560008201527f63656976657220696d706c656d656e7465720000000000000000000000000000602082015250565b6000620014a960328362001308565b9150620014b6826200144b565b604082019050919050565b60006020820190508181036000830152620014dc816200149a565b9050919050565b7f4552433732313a20696e76616c696420746f6b656e2049440000000000000000600082015250565b60006200151b60188362001308565b91506200152882620014e3565b602082019050919050565b600060208201905081810360008301526200154e816200150c565b9050919050565b7f4552433732313a206d696e7420746f20746865207a65726f2061646472657373600082015250565b60006200158d60208362001308565b91506200159a8262001555565b602082019050919050565b60006020820190508181036000830152620015c0816200157e565b9050919050565b7f4552433732313a20746f6b656e20616c7265616479206d696e74656400000000600082015250565b6000620015ff601c8362001308565b91506200160c82620015c7565b602082019050919050565b600060208201905081810360008301526200163281620015f0565b9050919050565b600073ffffffffffffffffffffffffffffffffffffffff82169050919050565b6000620016668262001639565b9050919050565b620016788162001659565b82525050565b620016898162001272565b82525050565b600081519050919050565b600082825260208201905092915050565b6000620016b8826200168f565b620016c481856200169a565b9350620016d68185602086016200116d565b620016e181620010a2565b840191505092915050565b60006080820190506200170360008301876200166d565b6200171260208301866200166d565b6200172160408301856200167e565b8181036060830152620017358184620016ab565b905095945050505050565b60007fffffffff0000000000000000000000000000000000000000000000000000000082169050919050565b620017778162001740565b81146200178357600080fd5b50565b60008151905062001797816200176c565b92915050565b600060208284031215620017b657620017b56200108e565b5b6000620017c68482850162001786565b91505092915050565b6000620017dc8262001272565b9150620017e98362001272565b925082821015620017ff57620017fe6200127c565b5b828203905092915050565b7f4e487b7100000000000000000000000000000000000000000000000000000000600052603260045260246000fd5b7f4e487b7100000000000000000000000000000000000000000000000000000000600052603160045260246000fd5b7f4552433732313a2061646472657373207a65726f206973206e6f74206120766160008201527f6c6964206f776e65720000000000000000000000000000000000000000000000602082015250565b6000620018c660298362001308565b9150620018d38262001868565b604082019050919050565b60006020820190508181036000830152620018f981620018b7565b9050919050565b7f4e487b7100000000000000000000000000000000000000000000000000000000600052602260045260246000fd5b600060028204905060018216806200194857607f821691505b602082108114156200195f576200195e62001900565b5b50919050565b613ce680620019756000396000f3fe608060405234801561001057600080fd5b50600436106102115760003560e01c80636352211e11610125578063a22cb465116100ad578063c87b56dd1161007c578063c87b56dd14610628578063d5abeb0114610658578063da3ef23f14610676578063e985e9c514610692578063f2fde38b146106c257610211565b8063a22cb465146105a2578063ab7f4a0b146105be578063b88d4fde146105ee578063c66828621461060a57610211565b8063715018a6116100f4578063715018a6146105225780637f00c7a61461052c57806384928a3d146105485780638da5cb5b1461056657806395d89b411461058457610211565b80636352211e146104745780636a40d2b2146104a45780636c0360eb146104d457806370a08231146104f257610211565b8063239c70ae116101a857806342842e0e1161017757806342842e0e146103d257806344a0d68a146103ee5780634f6ccce71461040a57806355f804b31461043a5780635c975abb1461045657610211565b8063239c70ae1461033857806323b872dd146103565780632f745c591461037257806340c10f19146103a257610211565b8063095ea7b3116101e4578063095ea7b3146102b057806313faede6146102cc57806316b5c614146102ea57806318160ddd1461031a57610211565b806301ffc9a71461021657806302329a291461024657806306fdde0314610262578063081812fc14610280575b600080fd5b610230600480360381019061022b91906128d9565b6106de565b60405161023d9190612921565b60405180910390f35b610260600480360381019061025b9190612968565b610758565b005b61026a61077d565b6040516102779190612a2e565b60405180910390f35b61029a60048036038101906102959190612a86565b61080f565b6040516102a79190612af4565b60405180910390f35b6102ca60048036038101906102c59190612b3b565b610855565b005b6102d461096d565b6040516102e19190612b8a565b60405180910390f35b61030460048036038101906102ff9190612a86565b610973565b6040516103119190612af4565b60405180910390f35b6103226109ce565b60405161032f9190612b8a565b60405180910390f35b6103406109db565b60405161034d9190612b8a565b60405180910390f35b610370600480360381019061036b9190612ba5565b6109e1565b005b61038c60048036038101906103879190612b3b565b610a41565b6040516103999190612b8a565b60405180910390f35b6103bc60048036038101906103b79190612b3b565b610ae6565b6040516103c99190612921565b60405180910390f35b6103ec60048036038101906103e79190612ba5565b610be1565b005b61040860048036038101906104039190612a86565b610c01565b005b610424600480360381019061041f9190612a86565b610c13565b6040516104319190612b8a565b60405180910390f35b610454600480360381019061044f9190612d2d565b610c84565b005b61045e610ca6565b60405161046b9190612921565b60405180910390f35b61048e60048036038101906104899190612a86565b610cb9565b60405161049b9190612af4565b60405180910390f35b6104be60048036038101906104b99190612a86565b610d6b565b6040516104cb9190612921565b60405180910390f35b6104dc610eaa565b6040516104e99190612a2e565b60405180910390f35b61050c60048036038101906105079190612d76565b610f38565b6040516105199190612b8a565b60405180910390f35b61052a610ff0565b005b61054660048036038101906105419190612a86565b611004565b005b610550611016565b60405161055d9190612e61565b60405180910390f35b61056e6110a4565b60405161057b9190612af4565b60405180910390f35b61058c6110ce565b6040516105999190612a2e565b60405180910390f35b6105bc60048036038101906105b79190612e83565b611160565b005b6105d860048036038101906105d39190612a86565b611176565b6040516105e59190612af4565b60405180910390f35b61060860048036038101906106039190612f64565b6111b5565b005b610612611217565b60405161061f9190612a2e565b60405180910390f35b610642600480360381019061063d9190612a86565b6112a5565b60405161064f9190612a2e565b60405180910390f35b61066061130d565b60405161066d9190612b8a565b60405180910390f35b610690600480360381019061068b9190612d2d565b611313565b005b6106ac60048036038101906106a79190612fe7565b611335565b6040516106b99190612921565b60405180910390f35b6106dc60048036038101906106d79190612d76565b6113c9565b005b60007f780e9d63000000000000000000000000000000000000000000000000000000007bffffffffffffffffffffffffffffffffffffffffffffffffffffffff1916827bffffffffffffffffffffffffffffffffffffffffffffffffffffffff19161480610751575061075082611475565b5b9050919050565b610760611557565b80601060006101000a81548160ff02191690831515021790555050565b60606000805461078c90613056565b80601f01602080910402602001604051908101604052809291908181526020018280546107b890613056565b80156108055780601f106107da57610100808354040283529160200191610805565b820191906000526020600020905b8154815290600101906020018083116107e857829003601f168201915b5050505050905090565b600061081a826115d5565b6004600083815260200190815260200160002060009054906101000a900473ffffffffffffffffffffffffffffffffffffffff169050919050565b600061086082610cb9565b90508073ffffffffffffffffffffffffffffffffffffffff168373ffffffffffffffffffffffffffffffffffffffff1614156108d1576040517f08c379a00000000000000000000000000000000000000000000000000000000081526004016108c8906130fa565b60405180910390fd5b8073ffffffffffffffffffffffffffffffffffffffff166108f0611620565b73ffffffffffffffffffffffffffffffffffffffff16148061091f575061091e81610919611620565b611335565b5b61095e576040517f08c379a00000000000000000000000000000000000000000000000000000000081526004016109559061318c565b60405180910390fd5b6109688383611628565b505050565b600d5481565b6000601161098b6001846116e190919063ffffffff16565b8154811061099c5761099b6131ac565b5b9060005260206000200160009054906101000a900473ffffffffffffffffffffffffffffffffffffffff169050919050565b6000600880549050905090565b600f5481565b6109f26109ec611620565b826116f7565b610a31576040517f08c379a0000000000000000000000000000000000000000000000000000000008152600401610a289061324d565b60405180910390fd5b610a3c83838361178c565b505050565b6000610a4c83610f38565b8210610a8d576040517f08c379a0000000000000000000000000000000000000000000000000000000008152600401610a84906132df565b60405180910390fd5b600660008473ffffffffffffffffffffffffffffffffffffffff1673ffffffffffffffffffffffffffffffffffffffff168152602001908152602001600020600083815260200190815260200160002054905092915050565b6000610af0611557565b6000610afa6109ce565b9050601060009054906101000a900460ff1615610b1657600080fd5b60008311610b2357600080fd5b600f54831115610b3257600080fd5b600e548382610b41919061332e565b1115610b4c57600080fd5b6000600190505b838111610bd557610b6f858284610b6a919061332e565b6119f3565b610b838183610b7e919061332e565b611a11565b610bc2576040517f08c379a0000000000000000000000000000000000000000000000000000000008152600401610bb9906133d0565b60405180910390fd5b8080610bcd906133f0565b915050610b53565b50600191505092915050565b610bfc838383604051806020016040528060008152506111b5565b505050565b610c09611557565b80600d8190555050565b6000610c1d6109ce565b8210610c5e576040517f08c379a0000000000000000000000000000000000000000000000000000000008152600401610c55906134ab565b60405180910390fd5b60088281548110610c7257610c716131ac565b5b90600052602060002001549050919050565b610c8c611557565b80600b9080519060200190610ca29291906127ca565b5050565b601060009054906101000a900460ff1681565b6000806002600084815260200190815260200160002060009054906101000a900473ffffffffffffffffffffffffffffffffffffffff169050600073ffffffffffffffffffffffffffffffffffffffff168173ffffffffffffffffffffffffffffffffffffffff161415610d62576040517f08c379a0000000000000000000000000000000000000000000000000000000008152600401610d5990613517565b60405180910390fd5b80915050919050565b6000610d75611557565b6000610d8b6001846116e190919063ffffffff16565b9050600073ffffffffffffffffffffffffffffffffffffffff1660118281548110610db957610db86131ac565b5b9060005260206000200160009054906101000a900473ffffffffffffffffffffffffffffffffffffffff1673ffffffffffffffffffffffffffffffffffffffff161415610e3b576040517f08c379a0000000000000000000000000000000000000000000000000000000008152600401610e32906135cf565b60405180910390fd5b610e4483610cb9565b60118281548110610e5857610e576131ac565b5b9060005260206000200160006101000a81548173ffffffffffffffffffffffffffffffffffffffff021916908373ffffffffffffffffffffffffffffffffffffffff1602179055506001915050919050565b600b8054610eb790613056565b80601f0160208091040260200160405190810160405280929190818152602001828054610ee390613056565b8015610f305780601f10610f0557610100808354040283529160200191610f30565b820191906000526020600020905b815481529060010190602001808311610f1357829003601f168201915b505050505081565b60008073ffffffffffffffffffffffffffffffffffffffff168273ffffffffffffffffffffffffffffffffffffffff161415610fa9576040517f08c379a0000000000000000000000000000000000000000000000000000000008152600401610fa090613661565b60405180910390fd5b600360008373ffffffffffffffffffffffffffffffffffffffff1673ffffffffffffffffffffffffffffffffffffffff168152602001908152602001600020549050919050565b610ff8611557565b6110026000611a87565b565b61100c611557565b80600f8190555050565b6060601180548060200260200160405190810160405280929190818152602001828054801561109a57602002820191906000526020600020905b8160009054906101000a900473ffffffffffffffffffffffffffffffffffffffff1673ffffffffffffffffffffffffffffffffffffffff1681526020019060010190808311611050575b5050505050905090565b6000600a60009054906101000a900473ffffffffffffffffffffffffffffffffffffffff16905090565b6060600180546110dd90613056565b80601f016020809104026020016040519081016040528092919081815260200182805461110990613056565b80156111565780601f1061112b57610100808354040283529160200191611156565b820191906000526020600020905b81548152906001019060200180831161113957829003601f168201915b5050505050905090565b61117261116b611620565b8383611b4d565b5050565b6011818154811061118657600080fd5b906000526020600020016000915054906101000a900473ffffffffffffffffffffffffffffffffffffffff1681565b6111c66111c0611620565b836116f7565b611205576040517f08c379a00000000000000000000000000000000000000000000000000000000081526004016111fc9061324d565b60405180910390fd5b61121184848484611cba565b50505050565b600c805461122490613056565b80601f016020809104026020016040519081016040528092919081815260200182805461125090613056565b801561129d5780601f106112725761010080835404028352916020019161129d565b820191906000526020600020905b81548152906001019060200180831161128057829003601f168201915b505050505081565b60606112b0826115d5565b60006112ba611d16565b905060008151116112da5760405180602001604052806000815250611305565b806112e484611da8565b6040516020016112f59291906136bd565b6040516020818303038152906040525b915050919050565b600e5481565b61131b611557565b80600c90805190602001906113319291906127ca565b5050565b6000600560008473ffffffffffffffffffffffffffffffffffffffff1673ffffffffffffffffffffffffffffffffffffffff16815260200190815260200160002060008373ffffffffffffffffffffffffffffffffffffffff1673ffffffffffffffffffffffffffffffffffffffff16815260200190815260200160002060009054906101000a900460ff16905092915050565b6113d1611557565b600073ffffffffffffffffffffffffffffffffffffffff168173ffffffffffffffffffffffffffffffffffffffff161415611441576040517f08c379a000000000000000000000000000000000000000000000000000000000815260040161143890613753565b60405180910390fd5b61144a81611a87565b50565b6000808273ffffffffffffffffffffffffffffffffffffffff163b119050919050565b505050565b60007f80ac58cd000000000000000000000000000000000000000000000000000000007bffffffffffffffffffffffffffffffffffffffffffffffffffffffff1916827bffffffffffffffffffffffffffffffffffffffffffffffffffffffff1916148061154057507f5b5e139f000000000000000000000000000000000000000000000000000000007bffffffffffffffffffffffffffffffffffffffffffffffffffffffff1916827bffffffffffffffffffffffffffffffffffffffffffffffffffffffff1916145b80611550575061154f82611f09565b5b9050919050565b61155f611620565b73ffffffffffffffffffffffffffffffffffffffff1661157d6110a4565b73ffffffffffffffffffffffffffffffffffffffff16146115d3576040517f08c379a00000000000000000000000000000000000000000000000000000000081526004016115ca906137bf565b60405180910390fd5b565b6115de81611f73565b61161d576040517f08c379a000000000000000000000000000000000000000000000000000000000815260040161161490613517565b60405180910390fd5b50565b600033905090565b816004600083815260200190815260200160002060006101000a81548173ffffffffffffffffffffffffffffffffffffffff021916908373ffffffffffffffffffffffffffffffffffffffff160217905550808273ffffffffffffffffffffffffffffffffffffffff1661169b83610cb9565b73ffffffffffffffffffffffffffffffffffffffff167f8c5be1e5ebec7d5bd14f71427d1e84f3dd0314c0f7b2291e5b200ac8c7c3b92560405160405180910390a45050565b600081836116ef91906137df565b905092915050565b60008061170383610cb9565b90508073ffffffffffffffffffffffffffffffffffffffff168473ffffffffffffffffffffffffffffffffffffffff16148061174557506117448185611335565b5b8061178357508373ffffffffffffffffffffffffffffffffffffffff1661176b8461080f565b73ffffffffffffffffffffffffffffffffffffffff16145b91505092915050565b8273ffffffffffffffffffffffffffffffffffffffff166117ac82610cb9565b73ffffffffffffffffffffffffffffffffffffffff1614611802576040517f08c379a00000000000000000000000000000000000000000000000000000000081526004016117f990613885565b60405180910390fd5b600073ffffffffffffffffffffffffffffffffffffffff168273ffffffffffffffffffffffffffffffffffffffff161415611872576040517f08c379a000000000000000000000000000000000000000000000000000000000815260040161186990613917565b60405180910390fd5b61187d838383611fdf565b611888600082611628565b6001600360008573ffffffffffffffffffffffffffffffffffffffff1673ffffffffffffffffffffffffffffffffffffffff16815260200190815260200160002060008282546118d891906137df565b925050819055506001600360008473ffffffffffffffffffffffffffffffffffffffff1673ffffffffffffffffffffffffffffffffffffffff168152602001908152602001600020600082825461192f919061332e565b92505081905550816002600083815260200190815260200160002060006101000a81548173ffffffffffffffffffffffffffffffffffffffff021916908373ffffffffffffffffffffffffffffffffffffffff160217905550808273ffffffffffffffffffffffffffffffffffffffff168473ffffffffffffffffffffffffffffffffffffffff167fddf252ad1be2c89b69c2b068fc378daa952ba7f163c4a11628f55a4df523b3ef60405160405180910390a46119ee8383836120f3565b505050565b611a0d8282604051806020016040528060008152506120f8565b5050565b60006011611a1e83610cb9565b9080600181540180825580915050600190039060005260206000200160009091909190916101000a81548173ffffffffffffffffffffffffffffffffffffffff021916908373ffffffffffffffffffffffffffffffffffffffff16021790555060019050919050565b6000600a60009054906101000a900473ffffffffffffffffffffffffffffffffffffffff16905081600a60006101000a81548173ffffffffffffffffffffffffffffffffffffffff021916908373ffffffffffffffffffffffffffffffffffffffff1602179055508173ffffffffffffffffffffffffffffffffffffffff168173ffffffffffffffffffffffffffffffffffffffff167f8be0079c531659141344cd1fd0a4f28419497f9722a3daafe3b4186f6b6457e060405160405180910390a35050565b8173ffffffffffffffffffffffffffffffffffffffff168373ffffffffffffffffffffffffffffffffffffffff161415611bbc576040517f08c379a0000000000000000000000000000000000000000000000000000000008152600401611bb390613983565b60405180910390fd5b80600560008573ffffffffffffffffffffffffffffffffffffffff1673ffffffffffffffffffffffffffffffffffffffff16815260200190815260200160002060008473ffffffffffffffffffffffffffffffffffffffff1673ffffffffffffffffffffffffffffffffffffffff16815260200190815260200160002060006101000a81548160ff0219169083151502179055508173ffffffffffffffffffffffffffffffffffffffff168373ffffffffffffffffffffffffffffffffffffffff167f17307eab39ab6107e8899845ad3d59bd9653f200f220920489ca2b5937696c3183604051611cad9190612921565b60405180910390a3505050565b611cc584848461178c565b611cd184848484612153565b611d10576040517f08c379a0000000000000000000000000000000000000000000000000000000008152600401611d0790613a15565b60405180910390fd5b50505050565b6060600b8054611d2590613056565b80601f0160208091040260200160405190810160405280929190818152602001828054611d5190613056565b8015611d9e5780601f10611d7357610100808354040283529160200191611d9e565b820191906000526020600020905b815481529060010190602001808311611d8157829003601f168201915b5050505050905090565b60606000821415611df0576040518060400160405280600181526020017f30000000000000000000000000000000000000000000000000000000000000008152509050611f04565b600082905060005b60008214611e22578080611e0b906133f0565b915050600a82611e1b9190613a64565b9150611df8565b60008167ffffffffffffffff811115611e3e57611e3d612c02565b5b6040519080825280601f01601f191660200182016040528015611e705781602001600182028036833780820191505090505b5090505b60008514611efd57600182611e8991906137df565b9150600a85611e989190613a95565b6030611ea4919061332e565b60f81b818381518110611eba57611eb96131ac565b5b60200101907effffffffffffffffffffffffffffffffffffffffffffffffffffffffffffff1916908160001a905350600a85611ef69190613a64565b9450611e74565b8093505050505b919050565b60007f01ffc9a7000000000000000000000000000000000000000000000000000000007bffffffffffffffffffffffffffffffffffffffffffffffffffffffff1916827bffffffffffffffffffffffffffffffffffffffffffffffffffffffff1916149050919050565b60008073ffffffffffffffffffffffffffffffffffffffff166002600084815260200190815260200160002060009054906101000a900473ffffffffffffffffffffffffffffffffffffffff1673ffffffffffffffffffffffffffffffffffffffff1614159050919050565b611fea838383611470565b600073ffffffffffffffffffffffffffffffffffffffff168373ffffffffffffffffffffffffffffffffffffffff16141561202d57612028816122ea565b61206c565b8173ffffffffffffffffffffffffffffffffffffffff168373ffffffffffffffffffffffffffffffffffffffff161461206b5761206a8382612333565b5b5b600073ffffffffffffffffffffffffffffffffffffffff168273ffffffffffffffffffffffffffffffffffffffff1614156120af576120aa816124a0565b6120ee565b8273ffffffffffffffffffffffffffffffffffffffff168273ffffffffffffffffffffffffffffffffffffffff16146120ed576120ec8282612571565b5b5b505050565b505050565b61210283836125f0565b61210f6000848484612153565b61214e576040517f08c379a000000000000000000000000000000000000000000000000000000000815260040161214590613a15565b60405180910390fd5b505050565b60006121748473ffffffffffffffffffffffffffffffffffffffff1661144d565b156122dd578373ffffffffffffffffffffffffffffffffffffffff1663150b7a0261219d611620565b8786866040518563ffffffff1660e01b81526004016121bf9493929190613b1b565b602060405180830381600087803b1580156121d957600080fd5b505af192505050801561220a57506040513d601f19601f820116820180604052508101906122079190613b7c565b60015b61228d573d806000811461223a576040519150601f19603f3d011682016040523d82523d6000602084013e61223f565b606091505b50600081511415612285576040517f08c379a000000000000000000000000000000000000000000000000000000000815260040161227c90613a15565b60405180910390fd5b805181602001fd5b63150b7a0260e01b7bffffffffffffffffffffffffffffffffffffffffffffffffffffffff1916817bffffffffffffffffffffffffffffffffffffffffffffffffffffffff1916149150506122e2565b600190505b949350505050565b6008805490506009600083815260200190815260200160002081905550600881908060018154018082558091505060019003906000526020600020016000909190919091505550565b6000600161234084610f38565b61234a91906137df565b905060006007600084815260200190815260200160002054905081811461242f576000600660008673ffffffffffffffffffffffffffffffffffffffff1673ffffffffffffffffffffffffffffffffffffffff168152602001908152602001600020600084815260200190815260200160002054905080600660008773ffffffffffffffffffffffffffffffffffffffff1673ffffffffffffffffffffffffffffffffffffffff168152602001908152602001600020600084815260200190815260200160002081905550816007600083815260200190815260200160002081905550505b6007600084815260200190815260200160002060009055600660008573ffffffffffffffffffffffffffffffffffffffff1673ffffffffffffffffffffffffffffffffffffffff16815260200190815260200160002060008381526020019081526020016000206000905550505050565b600060016008805490506124b491906137df565b90506000600960008481526020019081526020016000205490506000600883815481106124e4576124e36131ac565b5b906000526020600020015490508060088381548110612506576125056131ac565b5b90600052602060002001819055508160096000838152602001908152602001600020819055506009600085815260200190815260200160002060009055600880548061255557612554613ba9565b5b6001900381819060005260206000200160009055905550505050565b600061257c83610f38565b905081600660008573ffffffffffffffffffffffffffffffffffffffff1673ffffffffffffffffffffffffffffffffffffffff168152602001908152602001600020600083815260200190815260200160002081905550806007600084815260200190815260200160002081905550505050565b600073ffffffffffffffffffffffffffffffffffffffff168273ffffffffffffffffffffffffffffffffffffffff161415612660576040517f08c379a000000000000000000000000000000000000000000000000000000000815260040161265790613c24565b60405180910390fd5b61266981611f73565b156126a9576040517f08c379a00000000000000000000000000000000000000000000000000000000081526004016126a090613c90565b60405180910390fd5b6126b560008383611fdf565b6001600360008473ffffffffffffffffffffffffffffffffffffffff1673ffffffffffffffffffffffffffffffffffffffff1681526020019081526020016000206000828254612705919061332e565b92505081905550816002600083815260200190815260200160002060006101000a81548173ffffffffffffffffffffffffffffffffffffffff021916908373ffffffffffffffffffffffffffffffffffffffff160217905550808273ffffffffffffffffffffffffffffffffffffffff16600073ffffffffffffffffffffffffffffffffffffffff167fddf252ad1be2c89b69c2b068fc378daa952ba7f163c4a11628f55a4df523b3ef60405160405180910390a46127c6600083836120f3565b5050565b8280546127d690613056565b90600052602060002090601f0160209004810192826127f8576000855561283f565b82601f1061281157805160ff191683800117855561283f565b8280016001018555821561283f579182015b8281111561283e578251825591602001919060010190612823565b5b50905061284c9190612850565b5090565b5b80821115612869576000816000905550600101612851565b5090565b6000604051905090565b600080fd5b600080fd5b60007fffffffff0000000000000000000000000000000000000000000000000000000082169050919050565b6128b681612881565b81146128c157600080fd5b50565b6000813590506128d3816128ad565b92915050565b6000602082840312156128ef576128ee612877565b5b60006128fd848285016128c4565b91505092915050565b60008115159050919050565b61291b81612906565b82525050565b60006020820190506129366000830184612912565b92915050565b61294581612906565b811461295057600080fd5b50565b6000813590506129628161293c565b92915050565b60006020828403121561297e5761297d612877565b5b600061298c84828501612953565b91505092915050565b600081519050919050565b600082825260208201905092915050565b60005b838110156129cf5780820151818401526020810190506129b4565b838111156129de576000848401525b50505050565b6000601f19601f8301169050919050565b6000612a0082612995565b612a0a81856129a0565b9350612a1a8185602086016129b1565b612a23816129e4565b840191505092915050565b60006020820190508181036000830152612a4881846129f5565b905092915050565b6000819050919050565b612a6381612a50565b8114612a6e57600080fd5b50565b600081359050612a8081612a5a565b92915050565b600060208284031215612a9c57612a9b612877565b5b6000612aaa84828501612a71565b91505092915050565b600073ffffffffffffffffffffffffffffffffffffffff82169050919050565b6000612ade82612ab3565b9050919050565b612aee81612ad3565b82525050565b6000602082019050612b096000830184612ae5565b92915050565b612b1881612ad3565b8114612b2357600080fd5b50565b600081359050612b3581612b0f565b92915050565b60008060408385031215612b5257612b51612877565b5b6000612b6085828601612b26565b9250506020612b7185828601612a71565b9150509250929050565b612b8481612a50565b82525050565b6000602082019050612b9f6000830184612b7b565b92915050565b600080600060608486031215612bbe57612bbd612877565b5b6000612bcc86828701612b26565b9350506020612bdd86828701612b26565b9250506040612bee86828701612a71565b9150509250925092565b600080fd5b600080fd5b7f4e487b7100000000000000000000000000000000000000000000000000000000600052604160045260246000fd5b612c3a826129e4565b810181811067ffffffffffffffff82111715612c5957612c58612c02565b5b80604052505050565b6000612c6c61286d565b9050612c788282612c31565b919050565b600067ffffffffffffffff821115612c9857612c97612c02565b5b612ca1826129e4565b9050602081019050919050565b82818337600083830152505050565b6000612cd0612ccb84612c7d565b612c62565b905082815260208101848484011115612cec57612ceb612bfd565b5b612cf7848285612cae565b509392505050565b600082601f830112612d1457612d13612bf8565b5b8135612d24848260208601612cbd565b91505092915050565b600060208284031215612d4357612d42612877565b5b600082013567ffffffffffffffff811115612d6157612d6061287c565b5b612d6d84828501612cff565b91505092915050565b600060208284031215612d8c57612d8b612877565b5b6000612d9a84828501612b26565b91505092915050565b600081519050919050565b600082825260208201905092915050565b6000819050602082019050919050565b612dd881612ad3565b82525050565b6000612dea8383612dcf565b60208301905092915050565b6000602082019050919050565b6000612e0e82612da3565b612e188185612dae565b9350612e2383612dbf565b8060005b83811015612e54578151612e3b8882612dde565b9750612e4683612df6565b925050600181019050612e27565b5085935050505092915050565b60006020820190508181036000830152612e7b8184612e03565b905092915050565b60008060408385031215612e9a57612e99612877565b5b6000612ea885828601612b26565b9250506020612eb985828601612953565b9150509250929050565b600067ffffffffffffffff821115612ede57612edd612c02565b5b612ee7826129e4565b9050602081019050919050565b6000612f07612f0284612ec3565b612c62565b905082815260208101848484011115612f2357612f22612bfd565b5b612f2e848285612cae565b509392505050565b600082601f830112612f4b57612f4a612bf8565b5b8135612f5b848260208601612ef4565b91505092915050565b60008060008060808587031215612f7e57612f7d612877565b5b6000612f8c87828801612b26565b9450506020612f9d87828801612b26565b9350506040612fae87828801612a71565b925050606085013567ffffffffffffffff811115612fcf57612fce61287c565b5b612fdb87828801612f36565b91505092959194509250565b60008060408385031215612ffe57612ffd612877565b5b600061300c85828601612b26565b925050602061301d85828601612b26565b9150509250929050565b7f4e487b7100000000000000000000000000000000000000000000000000000000600052602260045260246000fd5b6000600282049050600182168061306e57607f821691505b6020821081141561308257613081613027565b5b50919050565b7f4552433732313a20617070726f76616c20746f2063757272656e74206f776e6560008201527f7200000000000000000000000000000000000000000000000000000000000000602082015250565b60006130e46021836129a0565b91506130ef82613088565b604082019050919050565b60006020820190508181036000830152613113816130d7565b9050919050565b7f4552433732313a20617070726f76652063616c6c6572206973206e6f7420746f60008201527f6b656e206f776e6572206e6f7220617070726f76656420666f7220616c6c0000602082015250565b6000613176603e836129a0565b91506131818261311a565b604082019050919050565b600060208201905081810360008301526131a581613169565b9050919050565b7f4e487b7100000000000000000000000000000000000000000000000000000000600052603260045260246000fd5b7f4552433732313a2063616c6c6572206973206e6f7420746f6b656e206f776e6560008201527f72206e6f7220617070726f766564000000000000000000000000000000000000602082015250565b6000613237602e836129a0565b9150613242826131db565b604082019050919050565b600060208201905081810360008301526132668161322a565b9050919050565b7f455243373231456e756d657261626c653a206f776e657220696e646578206f7560008201527f74206f6620626f756e6473000000000000000000000000000000000000000000602082015250565b60006132c9602b836129a0565b91506132d48261326d565b604082019050919050565b600060208201905081810360008301526132f8816132bc565b9050919050565b7f4e487b7100000000000000000000000000000000000000000000000000000000600052601160045260246000fd5b600061333982612a50565b915061334483612a50565b9250827fffffffffffffffffffffffffffffffffffffffffffffffffffffffffffffffff03821115613379576133786132ff565b5b828201905092915050565b7f4552524f523a20617070656e646564206661756c740000000000000000000000600082015250565b60006133ba6015836129a0565b91506133c582613384565b602082019050919050565b600060208201905081810360008301526133e9816133ad565b9050919050565b60006133fb82612a50565b91507fffffffffffffffffffffffffffffffffffffffffffffffffffffffffffffffff82141561342e5761342d6132ff565b5b600182019050919050565b7f455243373231456e756d657261626c653a20676c6f62616c20696e646578206f60008201527f7574206f6620626f756e64730000000000000000000000000000000000000000602082015250565b6000613495602c836129a0565b91506134a082613439565b604082019050919050565b600060208201905081810360008301526134c481613488565b9050919050565b7f4552433732313a20696e76616c696420746f6b656e2049440000000000000000600082015250565b60006135016018836129a0565b915061350c826134cb565b602082019050919050565b60006020820190508181036000830152613530816134f4565b9050919050565b7f596f752063616e206e6f74206372656174652061206e657720696e646578206f60008201527f662074686520746f6b656e4964416464726573734c697374207374726169676860208201527f746c792021212100000000000000000000000000000000000000000000000000604082015250565b60006135b96047836129a0565b91506135c482613537565b606082019050919050565b600060208201905081810360008301526135e8816135ac565b9050919050565b7f4552433732313a2061646472657373207a65726f206973206e6f74206120766160008201527f6c6964206f776e65720000000000000000000000000000000000000000000000602082015250565b600061364b6029836129a0565b9150613656826135ef565b604082019050919050565b6000602082019050818103600083015261367a8161363e565b9050919050565b600081905092915050565b600061369782612995565b6136a18185613681565b93506136b18185602086016129b1565b80840191505092915050565b60006136c9828561368c565b91506136d5828461368c565b91508190509392505050565b7f4f776e61626c653a206e6577206f776e657220697320746865207a65726f206160008201527f6464726573730000000000000000000000000000000000000000000000000000602082015250565b600061373d6026836129a0565b9150613748826136e1565b604082019050919050565b6000602082019050818103600083015261376c81613730565b9050919050565b7f4f776e61626c653a2063616c6c6572206973206e6f7420746865206f776e6572600082015250565b60006137a96020836129a0565b91506137b482613773565b602082019050919050565b600060208201905081810360008301526137d88161379c565b9050919050565b60006137ea82612a50565b91506137f583612a50565b925082821015613808576138076132ff565b5b828203905092915050565b7f4552433732313a207472616e736665722066726f6d20696e636f72726563742060008201527f6f776e6572000000000000000000000000000000000000000000000000000000602082015250565b600061386f6025836129a0565b915061387a82613813565b604082019050919050565b6000602082019050818103600083015261389e81613862565b9050919050565b7f4552433732313a207472616e7366657220746f20746865207a65726f2061646460008201527f7265737300000000000000000000000000000000000000000000000000000000602082015250565b60006139016024836129a0565b915061390c826138a5565b604082019050919050565b60006020820190508181036000830152613930816138f4565b9050919050565b7f4552433732313a20617070726f766520746f2063616c6c657200000000000000600082015250565b600061396d6019836129a0565b915061397882613937565b602082019050919050565b6000602082019050818103600083015261399c81613960565b9050919050565b7f4552433732313a207472616e7366657220746f206e6f6e20455243373231526560008201527f63656976657220696d706c656d656e7465720000000000000000000000000000602082015250565b60006139ff6032836129a0565b9150613a0a826139a3565b604082019050919050565b60006020820190508181036000830152613a2e816139f2565b9050919050565b7f4e487b7100000000000000000000000000000000000000000000000000000000600052601260045260246000fd5b6000613a6f82612a50565b9150613a7a83612a50565b925082613a8a57613a89613a35565b5b828204905092915050565b6000613aa082612a50565b9150613aab83612a50565b925082613abb57613aba613a35565b5b828206905092915050565b600081519050919050565b600082825260208201905092915050565b6000613aed82613ac6565b613af78185613ad1565b9350613b078185602086016129b1565b613b10816129e4565b840191505092915050565b6000608082019050613b306000830187612ae5565b613b3d6020830186612ae5565b613b4a6040830185612b7b565b8181036060830152613b5c8184613ae2565b905095945050505050565b600081519050613b76816128ad565b92915050565b600060208284031215613b9257613b91612877565b5b6000613ba084828501613b67565b91505092915050565b7f4e487b7100000000000000000000000000000000000000000000000000000000600052603160045260246000fd5b7f4552433732313a206d696e7420746f20746865207a65726f2061646472657373600082015250565b6000613c0e6020836129a0565b9150613c1982613bd8565b602082019050919050565b60006020820190508181036000830152613c3d81613c01565b9050919050565b7f4552433732313a20746f6b656e20616c7265616479206d696e74656400000000600082015250565b6000613c7a601c836129a0565b9150613c8582613c44565b602082019050919050565b60006020820190508181036000830152613ca981613c6d565b905091905056fea2646970667358221220ba91c735c61fd434a9f90c0ac63099f03dc903a0e772036611c35439ab89937b64736f6c63430008090033",
    "linkReferences": {},
    "deployedLinkReferences": {}
}